{
  "contractName": "NectarController",
  "abi": [
    {
      "constant": true,
      "inputs": [],
      "name": "tokenContract",
      "outputs": [
        {
          "name": "",
          "type": "address"
        }
      ],
      "payable": false,
      "stateMutability": "view",
      "type": "function"
    },
    {
      "constant": false,
      "inputs": [],
      "name": "renounceOwnership",
      "outputs": [],
      "payable": false,
      "stateMutability": "nonpayable",
      "type": "function"
    },
    {
      "constant": true,
      "inputs": [],
      "name": "owner",
      "outputs": [
        {
          "name": "",
          "type": "address"
        }
      ],
      "payable": false,
      "stateMutability": "view",
      "type": "function"
    },
    {
      "constant": true,
      "inputs": [],
      "name": "isOwner",
      "outputs": [
        {
          "name": "",
          "type": "bool"
        }
      ],
      "payable": false,
      "stateMutability": "view",
      "type": "function"
    },
    {
      "constant": false,
      "inputs": [
        {
          "name": "newOwner",
          "type": "address"
        }
      ],
      "name": "transferOwnership",
      "outputs": [],
      "payable": false,
      "stateMutability": "nonpayable",
      "type": "function"
    },
    {
      "inputs": [
        {
          "name": "_tokenAddress",
          "type": "address"
        }
      ],
      "payable": false,
      "stateMutability": "nonpayable",
      "type": "constructor"
    },
    {
      "payable": true,
      "stateMutability": "payable",
      "type": "fallback"
    },
    {
      "anonymous": false,
      "inputs": [
        {
          "indexed": true,
          "name": "_token",
          "type": "address"
        },
        {
          "indexed": true,
          "name": "_controller",
          "type": "address"
        },
        {
          "indexed": false,
          "name": "_amount",
          "type": "uint256"
        }
      ],
      "name": "ClaimedTokens",
      "type": "event"
    },
    {
      "anonymous": false,
      "inputs": [
        {
          "indexed": false,
          "name": "_amount",
          "type": "uint256"
        }
      ],
      "name": "LogFeeTopUp",
      "type": "event"
    },
    {
      "anonymous": false,
      "inputs": [
        {
          "indexed": false,
          "name": "_amount",
          "type": "uint256"
        }
      ],
      "name": "LogFeeEvacuation",
      "type": "event"
    },
    {
      "anonymous": false,
      "inputs": [
        {
          "indexed": false,
          "name": "_user",
          "type": "address"
        },
        {
          "indexed": false,
          "name": "_amount",
          "type": "uint256"
        },
        {
          "indexed": false,
          "name": "_maker",
          "type": "bool"
        }
      ],
      "name": "LogContributions",
      "type": "event"
    },
    {
      "anonymous": false,
      "inputs": [
        {
          "indexed": false,
          "name": "_user",
          "type": "address"
        },
        {
          "indexed": false,
          "name": "_amount",
          "type": "uint256"
        }
      ],
      "name": "LogClaim",
      "type": "event"
    },
    {
      "anonymous": false,
      "inputs": [
        {
          "indexed": false,
          "name": "newAddress",
          "type": "address"
        }
      ],
      "name": "UpgradedController",
      "type": "event"
    },
    {
      "anonymous": false,
      "inputs": [
        {
          "indexed": true,
          "name": "previousOwner",
          "type": "address"
        },
        {
          "indexed": true,
          "name": "newOwner",
          "type": "address"
        }
      ],
      "name": "OwnershipTransferred",
      "type": "event"
    },
    {
      "constant": false,
      "inputs": [
        {
          "name": "_owner",
          "type": "address"
        }
      ],
      "name": "proxyPayment",
      "outputs": [
        {
          "name": "",
          "type": "bool"
        }
      ],
      "payable": true,
      "stateMutability": "payable",
      "type": "function"
    },
    {
      "constant": false,
      "inputs": [
        {
          "name": "_from",
          "type": "address"
        },
        {
          "name": "_to",
          "type": "address"
        },
        {
          "name": "_amount",
          "type": "uint256"
        }
      ],
      "name": "onTransfer",
      "outputs": [
        {
          "name": "",
          "type": "bool"
        }
      ],
      "payable": false,
      "stateMutability": "nonpayable",
      "type": "function"
    },
    {
      "constant": false,
      "inputs": [
        {
          "name": "_owner",
          "type": "address"
        },
        {
          "name": "_spender",
          "type": "address"
        },
        {
          "name": "_amount",
          "type": "uint256"
        }
      ],
      "name": "onApprove",
      "outputs": [
        {
          "name": "",
          "type": "bool"
        }
      ],
      "payable": false,
      "stateMutability": "nonpayable",
      "type": "function"
    },
    {
      "constant": false,
      "inputs": [
        {
          "name": "_owner",
          "type": "address"
        },
        {
          "name": "_tokensToBurn",
          "type": "uint256"
        }
      ],
      "name": "onBurn",
      "outputs": [
        {
          "name": "",
          "type": "bool"
        }
      ],
      "payable": false,
      "stateMutability": "nonpayable",
      "type": "function"
    },
    {
      "constant": false,
      "inputs": [
        {
          "name": "_newControllerAddress",
          "type": "address"
        }
      ],
      "name": "upgradeController",
      "outputs": [],
      "payable": false,
      "stateMutability": "nonpayable",
      "type": "function"
    },
    {
      "constant": false,
      "inputs": [
        {
          "name": "_burningEnabled",
          "type": "bool"
        }
      ],
      "name": "enableBurning",
      "outputs": [],
      "payable": false,
      "stateMutability": "nonpayable",
      "type": "function"
    },
    {
      "constant": false,
      "inputs": [
        {
          "name": "_token",
          "type": "address"
        }
      ],
      "name": "claimTokens",
      "outputs": [],
      "payable": false,
      "stateMutability": "nonpayable",
      "type": "function"
    }
  ],
  "bytecode": "0x608060405234801561001057600080fd5b506040516020806111a08339810180604052602081101561003057600080fd5b810190808051906020019092919050505061005861015a640100000000026401000000009004565b6000806101000a81548173ffffffffffffffffffffffffffffffffffffffff021916908373ffffffffffffffffffffffffffffffffffffffff1602179055506000809054906101000a900473ffffffffffffffffffffffffffffffffffffffff1673ffffffffffffffffffffffffffffffffffffffff16600073ffffffffffffffffffffffffffffffffffffffff167f8be0079c531659141344cd1fd0a4f28419497f9722a3daafe3b4186f6b6457e060405160405180910390a380600160006101000a81548173ffffffffffffffffffffffffffffffffffffffff021916908373ffffffffffffffffffffffffffffffffffffffff16021790555050610162565b600033905090565b61102f806101716000396000f3fe6080604052600436106100ba576000357c0100000000000000000000000000000000000000000000000000000000900463ffffffff16806345a1b92c146100bc5780634a3931491461012f57806355a373d6146101c2578063715018a6146102195780638da5cb5b146102305780638f32d59b14610287578063b45dd873146102b6578063b9c2ee82146102f3578063da682aeb14610344578063df8de3e7146103d7578063f2fde38b14610428578063f48c305414610479575b005b3480156100c857600080fd5b50610115600480360360408110156100df57600080fd5b81019080803573ffffffffffffffffffffffffffffffffffffffff169060200190929190803590602001909291905050506104d5565b604051808215151515815260200191505060405180910390f35b34801561013b57600080fd5b506101a86004803603606081101561015257600080fd5b81019080803573ffffffffffffffffffffffffffffffffffffffff169060200190929190803573ffffffffffffffffffffffffffffffffffffffff16906020019092919080359060200190929190505050610648565b604051808215151515815260200191505060405180910390f35b3480156101ce57600080fd5b506101d7610655565b604051808273ffffffffffffffffffffffffffffffffffffffff1673ffffffffffffffffffffffffffffffffffffffff16815260200191505060405180910390f35b34801561022557600080fd5b5061022e61067b565b005b34801561023c57600080fd5b506102456107b6565b604051808273ffffffffffffffffffffffffffffffffffffffff1673ffffffffffffffffffffffffffffffffffffffff16815260200191505060405180910390f35b34801561029357600080fd5b5061029c6107df565b604051808215151515815260200191505060405180910390f35b3480156102c257600080fd5b506102f1600480360360208110156102d957600080fd5b8101908080351515906020019092919050505061083d565b005b3480156102ff57600080fd5b506103426004803603602081101561031657600080fd5b81019080803573ffffffffffffffffffffffffffffffffffffffff169060200190929190505050610969565b005b34801561035057600080fd5b506103bd6004803603606081101561036757600080fd5b81019080803573ffffffffffffffffffffffffffffffffffffffff169060200190929190803573ffffffffffffffffffffffffffffffffffffffff16906020019092919080359060200190929190505050610b20565b604051808215151515815260200191505060405180910390f35b3480156103e357600080fd5b50610426600480360360208110156103fa57600080fd5b81019080803573ffffffffffffffffffffffffffffffffffffffff169060200190929190505050610b2d565b005b34801561043457600080fd5b506104776004803603602081101561044b57600080fd5b81019080803573ffffffffffffffffffffffffffffffffffffffff169060200190929190505050610ddf565b005b6104bb6004803603602081101561048f57600080fd5b81019080803573ffffffffffffffffffffffffffffffffffffffff169060200190929190505050610e67565b604051808215151515815260200191505060405180910390f35b6000600160009054906101000a900473ffffffffffffffffffffffffffffffffffffffff1673ffffffffffffffffffffffffffffffffffffffff163373ffffffffffffffffffffffffffffffffffffffff1614151561053357600080fd5b600160009054906101000a900473ffffffffffffffffffffffffffffffffffffffff1673ffffffffffffffffffffffffffffffffffffffff1663d3ce77fe84846040518363ffffffff167c0100000000000000000000000000000000000000000000000000000000028152600401808373ffffffffffffffffffffffffffffffffffffffff1673ffffffffffffffffffffffffffffffffffffffff16815260200182815260200192505050602060405180830381600087803b1580156105f857600080fd5b505af115801561060c573d6000803e3d6000fd5b505050506040513d602081101561062257600080fd5b8101908080519060200190929190505050151561063e57600080fd5b6001905092915050565b6000600190509392505050565b600160009054906101000a900473ffffffffffffffffffffffffffffffffffffffff1681565b6106836107df565b15156106f7576040517f08c379a00000000000000000000000000000000000000000000000000000000081526004018080602001828103825260208152602001807f4f776e61626c653a2063616c6c6572206973206e6f7420746865206f776e657281525060200191505060405180910390fd5b600073ffffffffffffffffffffffffffffffffffffffff166000809054906101000a900473ffffffffffffffffffffffffffffffffffffffff1673ffffffffffffffffffffffffffffffffffffffff167f8be0079c531659141344cd1fd0a4f28419497f9722a3daafe3b4186f6b6457e060405160405180910390a360008060006101000a81548173ffffffffffffffffffffffffffffffffffffffff021916908373ffffffffffffffffffffffffffffffffffffffff160217905550565b60008060009054906101000a900473ffffffffffffffffffffffffffffffffffffffff16905090565b60008060009054906101000a900473ffffffffffffffffffffffffffffffffffffffff1673ffffffffffffffffffffffffffffffffffffffff16610821610e72565b73ffffffffffffffffffffffffffffffffffffffff1614905090565b6108456107df565b15156108b9576040517f08c379a00000000000000000000000000000000000000000000000000000000081526004018080602001828103825260208152602001807f4f776e61626c653a2063616c6c6572206973206e6f7420746865206f776e657281525060200191505060405180910390fd5b600160009054906101000a900473ffffffffffffffffffffffffffffffffffffffff1673ffffffffffffffffffffffffffffffffffffffff1663b45dd873826040518263ffffffff167c01000000000000000000000000000000000000000000000000000000000281526004018082151515158152602001915050600060405180830381600087803b15801561094e57600080fd5b505af1158015610962573d6000803e3d6000fd5b5050505050565b6109716107df565b15156109e5576040517f08c379a00000000000000000000000000000000000000000000000000000000081526004018080602001828103825260208152602001807f4f776e61626c653a2063616c6c6572206973206e6f7420746865206f776e657281525060200191505060405180910390fd5b600160009054906101000a900473ffffffffffffffffffffffffffffffffffffffff1673ffffffffffffffffffffffffffffffffffffffff16633cebb823826040518263ffffffff167c0100000000000000000000000000000000000000000000000000000000028152600401808273ffffffffffffffffffffffffffffffffffffffff1673ffffffffffffffffffffffffffffffffffffffff168152602001915050600060405180830381600087803b158015610aa257600080fd5b505af1158015610ab6573d6000803e3d6000fd5b505050507fbef2873659f3bf8b3c7c64380b7543be225c22ebb0f56a811c1a7209b00f822281604051808273ffffffffffffffffffffffffffffffffffffffff1673ffffffffffffffffffffffffffffffffffffffff16815260200191505060405180910390a150565b6000600190509392505050565b610b356107df565b1515610ba9576040517f08c379a00000000000000000000000000000000000000000000000000000000081526004018080602001828103825260208152602001807f4f776e61626c653a2063616c6c6572206973206e6f7420746865206f776e657281525060200191505060405180910390fd5b600081905060008173ffffffffffffffffffffffffffffffffffffffff166370a08231306040518263ffffffff167c0100000000000000000000000000000000000000000000000000000000028152600401808273ffffffffffffffffffffffffffffffffffffffff1673ffffffffffffffffffffffffffffffffffffffff168152602001915050602060405180830381600087803b158015610c4b57600080fd5b505af1158015610c5f573d6000803e3d6000fd5b505050506040513d6020811015610c7557600080fd5b810190808051906020019092919050505090508173ffffffffffffffffffffffffffffffffffffffff1663a9059cbb610cac6107b6565b836040518363ffffffff167c0100000000000000000000000000000000000000000000000000000000028152600401808373ffffffffffffffffffffffffffffffffffffffff1673ffffffffffffffffffffffffffffffffffffffff16815260200182815260200192505050602060405180830381600087803b158015610d3257600080fd5b505af1158015610d46573d6000803e3d6000fd5b505050506040513d6020811015610d5c57600080fd5b810190808051906020019092919050505050610d766107b6565b73ffffffffffffffffffffffffffffffffffffffff168373ffffffffffffffffffffffffffffffffffffffff167ff931edb47c50b4b4104c187b5814a9aef5f709e17e2ecf9617e860cacade929c836040518082815260200191505060405180910390a3505050565b610de76107df565b1515610e5b576040517f08c379a00000000000000000000000000000000000000000000000000000000081526004018080602001828103825260208152602001807f4f776e61626c653a2063616c6c6572206973206e6f7420746865206f776e657281525060200191505060405180910390fd5b610e6481610e7a565b50565b600060019050919050565b600033905090565b600073ffffffffffffffffffffffffffffffffffffffff168173ffffffffffffffffffffffffffffffffffffffff1614151515610f45576040517f08c379a00000000000000000000000000000000000000000000000000000000081526004018080602001828103825260268152602001807f4f776e61626c653a206e6577206f776e657220697320746865207a65726f206181526020017f646472657373000000000000000000000000000000000000000000000000000081525060400191505060405180910390fd5b8073ffffffffffffffffffffffffffffffffffffffff166000809054906101000a900473ffffffffffffffffffffffffffffffffffffffff1673ffffffffffffffffffffffffffffffffffffffff167f8be0079c531659141344cd1fd0a4f28419497f9722a3daafe3b4186f6b6457e060405160405180910390a3806000806101000a81548173ffffffffffffffffffffffffffffffffffffffff021916908373ffffffffffffffffffffffffffffffffffffffff1602179055505056fea165627a7a7230582040cbbf09d3516c6ecc320ed28cb6dafd710f9bca99e2b977a1a4845e481610970029",
  "source": "pragma solidity ^0.5.0;\n\nimport \"@openzeppelin/contracts/math/SafeMath.sol\";\nimport \"@openzeppelin/contracts/ownership/Ownable.sol\";\nimport \"./interfaces/INEC.sol\";\n\ncontract TokenController {\n\n    function proxyPayment(address _owner) public payable returns(bool);\n\n    function onTransfer(address _from, address _to, uint _amount) public returns(bool);\n\n    function onApprove(address _owner, address _spender, uint _amount) public\n        returns(bool);\n\n    function onBurn(address payable _owner, uint _amount) public returns(bool);\n}\n\n\ncontract NectarController is TokenController, Ownable {\n    using SafeMath for uint256;\n\n    INEC public tokenContract;   // The new token for this Campaign\n\n\n    /// @dev There are several checks to make sure the parameters are acceptable\n    /// @param _tokenAddress Address of the token contract this contract controls\n\n    constructor (\n        address _tokenAddress\n    ) public {\n        tokenContract = INEC(_tokenAddress); // The Deployed Token Contract\n    }\n\n    /// @dev The fallback function is called when ether is sent to the contract, it\n    /// simply calls `doTakerPayment()` . No tokens are created when takers contribute.\n    /// `_owner`. Payable is a required solidity modifier for functions to receive\n    /// ether, without this modifier functions will throw if ether is sent to them\n\n    function () external payable {\n    }\n\n/////////////////\n// TokenController interface\n/////////////////\n\n    /// @notice `proxyPayment()` allows the caller to send ether to the Campaign\n    /// but does not create tokens. This functions the same as the fallback function.\n    /// @param _owner Does not do anything, but preserved because of MiniMe standard function.\n    function proxyPayment(address _owner) public payable returns(bool) {\n        return true;\n    }\n\n\n    /// @notice Notifies the controller about a transfer.\n    /// Transfers can only happen to whitelisted addresses\n    /// @param _from The origin of the transfer\n    /// @param _to The destination of the transfer\n    /// @param _amount The amount of the transfer\n    /// @return False if the controller does not authorize the transfer\n    function onTransfer(address _from, address _to, uint _amount) public returns(bool) {\n        return true;\n    }\n\n    /// @notice Notifies the controller about an approval, for this Campaign all\n    ///  approvals are allowed by default and no extra notifications are needed\n    /// @param _owner The address that calls `approve()`\n    /// @param _spender The spender in the `approve()` call\n    /// @param _amount The amount in the `approve()` call\n    /// @return False if the controller does not authorize the approval\n    function onApprove(address _owner, address _spender, uint _amount) public\n        returns(bool)\n    {\n        return true;\n    }\n\n    /// @notice Notifies the controller about a burn attempt. Initially all burns are disabled.\n    /// Upgraded Controllers in the future will allow token holders to claim the pledged ETH\n    /// @param _owner The address that calls `burn()`\n    /// @param _tokensToBurn The amount in the `burn()` call\n    /// @return False if the controller does not authorize the approval\n    function onBurn(address payable _owner, uint _tokensToBurn) public\n        returns(bool)\n    {\n        // This plugin can only be called by the token contract\n        require(msg.sender == address(tokenContract));\n\n        require (tokenContract.destroyTokens(_owner, _tokensToBurn));\n\n        return true;\n    }\n\n    /// @notice `onlyOwner` can upgrade the controller contract\n    /// @param _newControllerAddress The address that will have the token control logic\n    function upgradeController(address _newControllerAddress) public onlyOwner {\n        tokenContract.changeController(_newControllerAddress);\n        emit UpgradedController(_newControllerAddress);\n    }\n\n    /// @dev enableBurning - Allows the owner to activate burning on the underlying token contract\n    function enableBurning(bool _burningEnabled) public onlyOwner{\n        tokenContract.enableBurning(_burningEnabled);\n    }\n\n\n//////////\n// Safety Methods\n//////////\n\n    /// @notice This method can be used by the owner to extract mistakenly\n    ///  sent tokens to this contract.\n    /// @param _token The address of the token contract that you want to recover\n    function claimTokens(address _token) public onlyOwner {\n\n        INEC token = INEC(_token);\n        uint balance = token.balanceOf(address(this));\n        token.transfer(owner(), balance);\n        emit ClaimedTokens(_token, owner(), balance);\n    }\n\n////////////////\n// Events\n////////////////\n    event ClaimedTokens(address indexed _token, address indexed _controller, uint _amount);\n\n    event LogFeeTopUp(uint _amount);\n    event LogFeeEvacuation(uint _amount);\n    event LogContributions (address _user, uint _amount, bool _maker);\n    event LogClaim (address _user, uint _amount);\n\n    event UpgradedController (address newAddress);\n\n}\n",
  "sourcePath": "/Users/willharborne/Desktop/EFX/repos/nec-controller/contracts/NectarController.sol",
  "compiler": {
    "name": "solc",
    "version": "0.5.0+commit.1d4f565a.Emscripten.clang"
  },
  "schemaVersion": "3.0.9",
  "updatedAt": "2020-01-22T13:35:47.905Z",
  "devdoc": {
    "methods": {
      "claimTokens(address)": {
        "params": {
          "_token": "The address of the token contract that you want to recover"
        }
      },
      "constructor": {
        "details": "There are several checks to make sure the parameters are acceptable",
        "params": {
          "_tokenAddress": "Address of the token contract this contract controls"
        }
      },
      "enableBurning(bool)": {
        "details": "enableBurning - Allows the owner to activate burning on the underlying token contract"
      },
      "isOwner()": {
        "details": "Returns true if the caller is the current owner."
      },
      "onApprove(address,address,uint256)": {
        "params": {
          "_amount": "The amount in the `approve()` call",
          "_owner": "The address that calls `approve()`",
          "_spender": "The spender in the `approve()` call"
        },
        "return": "False if the controller does not authorize the approval"
      },
      "onBurn(address,uint256)": {
        "params": {
          "_owner": "The address that calls `burn()`",
          "_tokensToBurn": "The amount in the `burn()` call"
        },
        "return": "False if the controller does not authorize the approval"
      },
      "onTransfer(address,address,uint256)": {
        "params": {
          "_amount": "The amount of the transfer",
          "_from": "The origin of the transfer",
          "_to": "The destination of the transfer"
        },
        "return": "False if the controller does not authorize the transfer"
      },
      "owner()": {
        "details": "Returns the address of the current owner."
      },
      "proxyPayment(address)": {
        "params": {
          "_owner": "Does not do anything, but preserved because of MiniMe standard function."
        }
      },
      "renounceOwnership()": {
        "details": "Leaves the contract without owner. It will not be possible to call `onlyOwner` functions anymore. Can only be called by the current owner.     * NOTE: Renouncing ownership will leave the contract without an owner, thereby removing any functionality that is only available to the owner."
      },
      "transferOwnership(address)": {
        "details": "Transfers ownership of the contract to a new account (`newOwner`). Can only be called by the current owner."
      },
      "upgradeController(address)": {
        "params": {
          "_newControllerAddress": "The address that will have the token control logic"
        }
      }
    }
  },
  "userdoc": {
    "methods": {
      "claimTokens(address)": {
        "notice": "///////This method can be used by the owner to extract mistakenly  sent tokens to this contract."
      },
      "onApprove(address,address,uint256)": {
        "notice": "Notifies the controller about an approval, for this Campaign all  approvals are allowed by default and no extra notifications are needed"
      },
      "onBurn(address,uint256)": {
        "notice": "Notifies the controller about a burn attempt. Initially all burns are disabled. Upgraded Controllers in the future will allow token holders to claim the pledged ETH"
      },
      "onTransfer(address,address,uint256)": {
        "notice": "Notifies the controller about a transfer. Transfers can only happen to whitelisted addresses"
      },
      "proxyPayment(address)": {
        "notice": "//////////////`proxyPayment()` allows the caller to send ether to the Campaign but does not create tokens. This functions the same as the fallback function."
      },
      "upgradeController(address)": {
        "notice": "`onlyOwner` can upgrade the controller contract"
      }
    }
  }
}