{
  "contractName": "NectarController",
  "abi": [
    {
      "constant": true,
      "inputs": [],
      "name": "vaultAddress",
      "outputs": [
        {
          "name": "",
          "type": "address"
        }
      ],
      "payable": false,
      "stateMutability": "view",
      "type": "function"
    },
    {
      "constant": true,
      "inputs": [],
      "name": "tokenContract",
      "outputs": [
        {
          "name": "",
          "type": "address"
        }
      ],
      "payable": false,
      "stateMutability": "view",
      "type": "function"
    },
    {
      "constant": false,
      "inputs": [],
      "name": "renounceOwnership",
      "outputs": [],
      "payable": false,
      "stateMutability": "nonpayable",
      "type": "function"
    },
    {
      "constant": true,
      "inputs": [],
      "name": "owner",
      "outputs": [
        {
          "name": "",
          "type": "address"
        }
      ],
      "payable": false,
      "stateMutability": "view",
      "type": "function"
    },
    {
      "constant": true,
      "inputs": [],
      "name": "isOwner",
      "outputs": [
        {
          "name": "",
          "type": "bool"
        }
      ],
      "payable": false,
      "stateMutability": "view",
      "type": "function"
    },
    {
      "constant": false,
      "inputs": [
        {
          "name": "newOwner",
          "type": "address"
        }
      ],
      "name": "transferOwnership",
      "outputs": [],
      "payable": false,
      "stateMutability": "nonpayable",
      "type": "function"
    },
    {
      "inputs": [
        {
          "name": "_vaultAddress",
          "type": "address"
        },
        {
          "name": "_tokenAddress",
          "type": "address"
        }
      ],
      "payable": false,
      "stateMutability": "nonpayable",
      "type": "constructor"
    },
    {
      "payable": true,
      "stateMutability": "payable",
      "type": "fallback"
    },
    {
      "anonymous": false,
      "inputs": [
        {
          "indexed": true,
          "name": "_token",
          "type": "address"
        },
        {
          "indexed": true,
          "name": "_controller",
          "type": "address"
        },
        {
          "indexed": false,
          "name": "_amount",
          "type": "uint256"
        }
      ],
      "name": "ClaimedTokens",
      "type": "event"
    },
    {
      "anonymous": false,
      "inputs": [
        {
          "indexed": false,
          "name": "_amount",
          "type": "uint256"
        }
      ],
      "name": "LogFeeTopUp",
      "type": "event"
    },
    {
      "anonymous": false,
      "inputs": [
        {
          "indexed": false,
          "name": "_amount",
          "type": "uint256"
        }
      ],
      "name": "LogFeeEvacuation",
      "type": "event"
    },
    {
      "anonymous": false,
      "inputs": [
        {
          "indexed": false,
          "name": "_user",
          "type": "address"
        },
        {
          "indexed": false,
          "name": "_amount",
          "type": "uint256"
        },
        {
          "indexed": false,
          "name": "_maker",
          "type": "bool"
        }
      ],
      "name": "LogContributions",
      "type": "event"
    },
    {
      "anonymous": false,
      "inputs": [
        {
          "indexed": false,
          "name": "_user",
          "type": "address"
        },
        {
          "indexed": false,
          "name": "_amount",
          "type": "uint256"
        }
      ],
      "name": "LogClaim",
      "type": "event"
    },
    {
      "anonymous": false,
      "inputs": [
        {
          "indexed": false,
          "name": "newAddress",
          "type": "address"
        }
      ],
      "name": "UpgradedController",
      "type": "event"
    },
    {
      "anonymous": false,
      "inputs": [
        {
          "indexed": true,
          "name": "previousOwner",
          "type": "address"
        },
        {
          "indexed": true,
          "name": "newOwner",
          "type": "address"
        }
      ],
      "name": "OwnershipTransferred",
      "type": "event"
    },
    {
      "constant": false,
      "inputs": [
        {
          "name": "_owner",
          "type": "address"
        }
      ],
      "name": "proxyPayment",
      "outputs": [
        {
          "name": "",
          "type": "bool"
        }
      ],
      "payable": true,
      "stateMutability": "payable",
      "type": "function"
    },
    {
      "constant": false,
      "inputs": [
        {
          "name": "_from",
          "type": "address"
        },
        {
          "name": "_to",
          "type": "address"
        },
        {
          "name": "_amount",
          "type": "uint256"
        }
      ],
      "name": "onTransfer",
      "outputs": [
        {
          "name": "",
          "type": "bool"
        }
      ],
      "payable": false,
      "stateMutability": "nonpayable",
      "type": "function"
    },
    {
      "constant": false,
      "inputs": [
        {
          "name": "_owner",
          "type": "address"
        },
        {
          "name": "_spender",
          "type": "address"
        },
        {
          "name": "_amount",
          "type": "uint256"
        }
      ],
      "name": "onApprove",
      "outputs": [
        {
          "name": "",
          "type": "bool"
        }
      ],
      "payable": false,
      "stateMutability": "nonpayable",
      "type": "function"
    },
    {
      "constant": false,
      "inputs": [
        {
          "name": "_owner",
          "type": "address"
        },
        {
          "name": "_tokensToBurn",
          "type": "uint256"
        }
      ],
      "name": "onBurn",
      "outputs": [
        {
          "name": "",
          "type": "bool"
        }
      ],
      "payable": false,
      "stateMutability": "nonpayable",
      "type": "function"
    },
    {
      "constant": false,
      "inputs": [
        {
          "name": "_newControllerAddress",
          "type": "address"
        }
      ],
      "name": "upgradeController",
      "outputs": [],
      "payable": false,
      "stateMutability": "nonpayable",
      "type": "function"
    },
    {
      "constant": false,
      "inputs": [
        {
          "name": "_burningEnabled",
          "type": "bool"
        }
      ],
      "name": "enableBurning",
      "outputs": [],
      "payable": false,
      "stateMutability": "nonpayable",
      "type": "function"
    },
    {
      "constant": false,
      "inputs": [
        {
          "name": "_token",
          "type": "address"
        }
      ],
      "name": "claimTokens",
      "outputs": [],
      "payable": false,
      "stateMutability": "nonpayable",
      "type": "function"
    }
  ],
  "bytecode": "0x608060405234801561001057600080fd5b506040516040806112b08339810180604052604081101561003057600080fd5b8101908080519060200190929190805190602001909291905050506100626101e2640100000000026401000000009004565b6000806101000a81548173ffffffffffffffffffffffffffffffffffffffff021916908373ffffffffffffffffffffffffffffffffffffffff1602179055506000809054906101000a900473ffffffffffffffffffffffffffffffffffffffff1673ffffffffffffffffffffffffffffffffffffffff16600073ffffffffffffffffffffffffffffffffffffffff167f8be0079c531659141344cd1fd0a4f28419497f9722a3daafe3b4186f6b6457e060405160405180910390a3600073ffffffffffffffffffffffffffffffffffffffff168273ffffffffffffffffffffffffffffffffffffffff161415151561015957600080fd5b80600160006101000a81548173ffffffffffffffffffffffffffffffffffffffff021916908373ffffffffffffffffffffffffffffffffffffffff16021790555081600260006101000a81548173ffffffffffffffffffffffffffffffffffffffff021916908373ffffffffffffffffffffffffffffffffffffffff16021790555050506101ea565b600033905090565b6110b7806101f96000396000f3fe6080604052600436106100c5576000357c0100000000000000000000000000000000000000000000000000000000900463ffffffff168063430bf08a146100c757806345a1b92c1461011e5780634a3931491461019157806355a373d614610224578063715018a61461027b5780638da5cb5b146102925780638f32d59b146102e9578063b45dd87314610318578063b9c2ee8214610355578063da682aeb146103a6578063df8de3e714610439578063f2fde38b1461048a578063f48c3054146104db575b005b3480156100d357600080fd5b506100dc610537565b604051808273ffffffffffffffffffffffffffffffffffffffff1673ffffffffffffffffffffffffffffffffffffffff16815260200191505060405180910390f35b34801561012a57600080fd5b506101776004803603604081101561014157600080fd5b81019080803573ffffffffffffffffffffffffffffffffffffffff1690602001909291908035906020019092919050505061055d565b604051808215151515815260200191505060405180910390f35b34801561019d57600080fd5b5061020a600480360360608110156101b457600080fd5b81019080803573ffffffffffffffffffffffffffffffffffffffff169060200190929190803573ffffffffffffffffffffffffffffffffffffffff169060200190929190803590602001909291905050506106d0565b604051808215151515815260200191505060405180910390f35b34801561023057600080fd5b506102396106dd565b604051808273ffffffffffffffffffffffffffffffffffffffff1673ffffffffffffffffffffffffffffffffffffffff16815260200191505060405180910390f35b34801561028757600080fd5b50610290610703565b005b34801561029e57600080fd5b506102a761083e565b604051808273ffffffffffffffffffffffffffffffffffffffff1673ffffffffffffffffffffffffffffffffffffffff16815260200191505060405180910390f35b3480156102f557600080fd5b506102fe610867565b604051808215151515815260200191505060405180910390f35b34801561032457600080fd5b506103536004803603602081101561033b57600080fd5b810190808035151590602001909291905050506108c5565b005b34801561036157600080fd5b506103a46004803603602081101561037857600080fd5b81019080803573ffffffffffffffffffffffffffffffffffffffff1690602001909291905050506109f1565b005b3480156103b257600080fd5b5061041f600480360360608110156103c957600080fd5b81019080803573ffffffffffffffffffffffffffffffffffffffff169060200190929190803573ffffffffffffffffffffffffffffffffffffffff16906020019092919080359060200190929190505050610ba8565b604051808215151515815260200191505060405180910390f35b34801561044557600080fd5b506104886004803603602081101561045c57600080fd5b81019080803573ffffffffffffffffffffffffffffffffffffffff169060200190929190505050610bb5565b005b34801561049657600080fd5b506104d9600480360360208110156104ad57600080fd5b81019080803573ffffffffffffffffffffffffffffffffffffffff169060200190929190505050610e67565b005b61051d600480360360208110156104f157600080fd5b81019080803573ffffffffffffffffffffffffffffffffffffffff169060200190929190505050610eef565b604051808215151515815260200191505060405180910390f35b600260009054906101000a900473ffffffffffffffffffffffffffffffffffffffff1681565b6000600160009054906101000a900473ffffffffffffffffffffffffffffffffffffffff1673ffffffffffffffffffffffffffffffffffffffff163373ffffffffffffffffffffffffffffffffffffffff161415156105bb57600080fd5b600160009054906101000a900473ffffffffffffffffffffffffffffffffffffffff1673ffffffffffffffffffffffffffffffffffffffff1663d3ce77fe84846040518363ffffffff167c0100000000000000000000000000000000000000000000000000000000028152600401808373ffffffffffffffffffffffffffffffffffffffff1673ffffffffffffffffffffffffffffffffffffffff16815260200182815260200192505050602060405180830381600087803b15801561068057600080fd5b505af1158015610694573d6000803e3d6000fd5b505050506040513d60208110156106aa57600080fd5b810190808051906020019092919050505015156106c657600080fd5b6001905092915050565b6000600190509392505050565b600160009054906101000a900473ffffffffffffffffffffffffffffffffffffffff1681565b61070b610867565b151561077f576040517f08c379a00000000000000000000000000000000000000000000000000000000081526004018080602001828103825260208152602001807f4f776e61626c653a2063616c6c6572206973206e6f7420746865206f776e657281525060200191505060405180910390fd5b600073ffffffffffffffffffffffffffffffffffffffff166000809054906101000a900473ffffffffffffffffffffffffffffffffffffffff1673ffffffffffffffffffffffffffffffffffffffff167f8be0079c531659141344cd1fd0a4f28419497f9722a3daafe3b4186f6b6457e060405160405180910390a360008060006101000a81548173ffffffffffffffffffffffffffffffffffffffff021916908373ffffffffffffffffffffffffffffffffffffffff160217905550565b60008060009054906101000a900473ffffffffffffffffffffffffffffffffffffffff16905090565b60008060009054906101000a900473ffffffffffffffffffffffffffffffffffffffff1673ffffffffffffffffffffffffffffffffffffffff166108a9610efa565b73ffffffffffffffffffffffffffffffffffffffff1614905090565b6108cd610867565b1515610941576040517f08c379a00000000000000000000000000000000000000000000000000000000081526004018080602001828103825260208152602001807f4f776e61626c653a2063616c6c6572206973206e6f7420746865206f776e657281525060200191505060405180910390fd5b600160009054906101000a900473ffffffffffffffffffffffffffffffffffffffff1673ffffffffffffffffffffffffffffffffffffffff1663b45dd873826040518263ffffffff167c01000000000000000000000000000000000000000000000000000000000281526004018082151515158152602001915050600060405180830381600087803b1580156109d657600080fd5b505af11580156109ea573d6000803e3d6000fd5b5050505050565b6109f9610867565b1515610a6d576040517f08c379a00000000000000000000000000000000000000000000000000000000081526004018080602001828103825260208152602001807f4f776e61626c653a2063616c6c6572206973206e6f7420746865206f776e657281525060200191505060405180910390fd5b600160009054906101000a900473ffffffffffffffffffffffffffffffffffffffff1673ffffffffffffffffffffffffffffffffffffffff16633cebb823826040518263ffffffff167c0100000000000000000000000000000000000000000000000000000000028152600401808273ffffffffffffffffffffffffffffffffffffffff1673ffffffffffffffffffffffffffffffffffffffff168152602001915050600060405180830381600087803b158015610b2a57600080fd5b505af1158015610b3e573d6000803e3d6000fd5b505050507fbef2873659f3bf8b3c7c64380b7543be225c22ebb0f56a811c1a7209b00f822281604051808273ffffffffffffffffffffffffffffffffffffffff1673ffffffffffffffffffffffffffffffffffffffff16815260200191505060405180910390a150565b6000600190509392505050565b610bbd610867565b1515610c31576040517f08c379a00000000000000000000000000000000000000000000000000000000081526004018080602001828103825260208152602001807f4f776e61626c653a2063616c6c6572206973206e6f7420746865206f776e657281525060200191505060405180910390fd5b600081905060008173ffffffffffffffffffffffffffffffffffffffff166370a08231306040518263ffffffff167c0100000000000000000000000000000000000000000000000000000000028152600401808273ffffffffffffffffffffffffffffffffffffffff1673ffffffffffffffffffffffffffffffffffffffff168152602001915050602060405180830381600087803b158015610cd357600080fd5b505af1158015610ce7573d6000803e3d6000fd5b505050506040513d6020811015610cfd57600080fd5b810190808051906020019092919050505090508173ffffffffffffffffffffffffffffffffffffffff1663a9059cbb610d3461083e565b836040518363ffffffff167c0100000000000000000000000000000000000000000000000000000000028152600401808373ffffffffffffffffffffffffffffffffffffffff1673ffffffffffffffffffffffffffffffffffffffff16815260200182815260200192505050602060405180830381600087803b158015610dba57600080fd5b505af1158015610dce573d6000803e3d6000fd5b505050506040513d6020811015610de457600080fd5b810190808051906020019092919050505050610dfe61083e565b73ffffffffffffffffffffffffffffffffffffffff168373ffffffffffffffffffffffffffffffffffffffff167ff931edb47c50b4b4104c187b5814a9aef5f709e17e2ecf9617e860cacade929c836040518082815260200191505060405180910390a3505050565b610e6f610867565b1515610ee3576040517f08c379a00000000000000000000000000000000000000000000000000000000081526004018080602001828103825260208152602001807f4f776e61626c653a2063616c6c6572206973206e6f7420746865206f776e657281525060200191505060405180910390fd5b610eec81610f02565b50565b600060019050919050565b600033905090565b600073ffffffffffffffffffffffffffffffffffffffff168173ffffffffffffffffffffffffffffffffffffffff1614151515610fcd576040517f08c379a00000000000000000000000000000000000000000000000000000000081526004018080602001828103825260268152602001807f4f776e61626c653a206e6577206f776e657220697320746865207a65726f206181526020017f646472657373000000000000000000000000000000000000000000000000000081525060400191505060405180910390fd5b8073ffffffffffffffffffffffffffffffffffffffff166000809054906101000a900473ffffffffffffffffffffffffffffffffffffffff1673ffffffffffffffffffffffffffffffffffffffff167f8be0079c531659141344cd1fd0a4f28419497f9722a3daafe3b4186f6b6457e060405160405180910390a3806000806101000a81548173ffffffffffffffffffffffffffffffffffffffff021916908373ffffffffffffffffffffffffffffffffffffffff1602179055505056fea165627a7a7230582042752582e46b581c121a2828ac66b65e40dbaab4cfd0837272b6c91c7c6fb94e0029",
  "source": "pragma solidity ^0.5.0;\n\nimport \"@openzeppelin/contracts/math/SafeMath.sol\";\nimport \"@openzeppelin/contracts/ownership/Ownable.sol\";\nimport \"./interfaces/INEC.sol\";\n\ncontract TokenController {\n\n    function proxyPayment(address _owner) public payable returns(bool);\n\n    function onTransfer(address _from, address _to, uint _amount) public returns(bool);\n\n    function onApprove(address _owner, address _spender, uint _amount) public\n        returns(bool);\n\n    function onBurn(address payable _owner, uint _amount) public returns(bool);\n}\n\n\ncontract NectarController is TokenController, Ownable {\n    using SafeMath for uint256;\n\n    INEC public tokenContract;   // The new token for this Campaign\n    address public vaultAddress;        // The address to hold the funds donated\n\n\n    /// @dev There are several checks to make sure the parameters are acceptable\n    /// @param _vaultAddress The address that will store the donated funds\n    /// @param _tokenAddress Address of the token contract this contract controls\n\n    constructor (\n        address _vaultAddress,\n        address _tokenAddress\n    ) public {\n        require(_vaultAddress != address(0));                // To prevent burning ETH\n        tokenContract = INEC(_tokenAddress); // The Deployed Token Contract\n        vaultAddress = _vaultAddress;\n    }\n\n    /// @dev The fallback function is called when ether is sent to the contract, it\n    /// simply calls `doTakerPayment()` . No tokens are created when takers contribute.\n    /// `_owner`. Payable is a required solidity modifier for functions to receive\n    /// ether, without this modifier functions will throw if ether is sent to them\n\n    function () external payable {\n    }\n\n/////////////////\n// TokenController interface\n/////////////////\n\n    /// @notice `proxyPayment()` allows the caller to send ether to the Campaign\n    /// but does not create tokens. This functions the same as the fallback function.\n    /// @param _owner Does not do anything, but preserved because of MiniMe standard function.\n    function proxyPayment(address _owner) public payable returns(bool) {\n        return true;\n    }\n\n\n    /// @notice Notifies the controller about a transfer.\n    /// Transfers can only happen to whitelisted addresses\n    /// @param _from The origin of the transfer\n    /// @param _to The destination of the transfer\n    /// @param _amount The amount of the transfer\n    /// @return False if the controller does not authorize the transfer\n    function onTransfer(address _from, address _to, uint _amount) public returns(bool) {\n        return true;\n    }\n\n    /// @notice Notifies the controller about an approval, for this Campaign all\n    ///  approvals are allowed by default and no extra notifications are needed\n    /// @param _owner The address that calls `approve()`\n    /// @param _spender The spender in the `approve()` call\n    /// @param _amount The amount in the `approve()` call\n    /// @return False if the controller does not authorize the approval\n    function onApprove(address _owner, address _spender, uint _amount) public\n        returns(bool)\n    {\n        return true;\n    }\n\n    /// @notice Notifies the controller about a burn attempt. Initially all burns are disabled.\n    /// Upgraded Controllers in the future will allow token holders to claim the pledged ETH\n    /// @param _owner The address that calls `burn()`\n    /// @param _tokensToBurn The amount in the `burn()` call\n    /// @return False if the controller does not authorize the approval\n    function onBurn(address payable _owner, uint _tokensToBurn) public\n        returns(bool)\n    {\n        // This plugin can only be called by the token contract\n        require(msg.sender == address(tokenContract));\n\n        require (tokenContract.destroyTokens(_owner, _tokensToBurn));\n\n        return true;\n    }\n\n    /// @notice `onlyOwner` can upgrade the controller contract\n    /// @param _newControllerAddress The address that will have the token control logic\n    function upgradeController(address _newControllerAddress) public onlyOwner {\n        tokenContract.changeController(_newControllerAddress);\n        emit UpgradedController(_newControllerAddress);\n    }\n\n    /// @dev enableBurning - Allows the owner to activate burning on the underlying token contract\n    function enableBurning(bool _burningEnabled) public onlyOwner{\n        tokenContract.enableBurning(_burningEnabled);\n    }\n\n\n//////////\n// Safety Methods\n//////////\n\n    /// @notice This method can be used by the owner to extract mistakenly\n    ///  sent tokens to this contract.\n    /// @param _token The address of the token contract that you want to recover\n    function claimTokens(address _token) public onlyOwner {\n\n        INEC token = INEC(_token);\n        uint balance = token.balanceOf(address(this));\n        token.transfer(owner(), balance);\n        emit ClaimedTokens(_token, owner(), balance);\n    }\n\n////////////////\n// Events\n////////////////\n    event ClaimedTokens(address indexed _token, address indexed _controller, uint _amount);\n\n    event LogFeeTopUp(uint _amount);\n    event LogFeeEvacuation(uint _amount);\n    event LogContributions (address _user, uint _amount, bool _maker);\n    event LogClaim (address _user, uint _amount);\n\n    event UpgradedController (address newAddress);\n\n}\n",
  "sourcePath": "/Users/willharborne/Desktop/EFX/repos/nec-controller/contracts/NectarController.sol",
  "compiler": {
    "name": "solc",
    "version": "0.5.0+commit.1d4f565a.Emscripten.clang"
  },
  "schemaVersion": "3.0.9",
  "updatedAt": "2020-01-22T10:12:29.504Z",
  "devdoc": {
    "methods": {
      "claimTokens(address)": {
        "params": {
          "_token": "The address of the token contract that you want to recover"
        }
      },
      "constructor": {
        "details": "There are several checks to make sure the parameters are acceptable",
        "params": {
          "_tokenAddress": "Address of the token contract this contract controls",
          "_vaultAddress": "The address that will store the donated funds"
        }
      },
      "enableBurning(bool)": {
        "details": "enableBurning - Allows the owner to activate burning on the underlying token contract"
      },
      "isOwner()": {
        "details": "Returns true if the caller is the current owner."
      },
      "onApprove(address,address,uint256)": {
        "params": {
          "_amount": "The amount in the `approve()` call",
          "_owner": "The address that calls `approve()`",
          "_spender": "The spender in the `approve()` call"
        },
        "return": "False if the controller does not authorize the approval"
      },
      "onBurn(address,uint256)": {
        "params": {
          "_owner": "The address that calls `burn()`",
          "_tokensToBurn": "The amount in the `burn()` call"
        },
        "return": "False if the controller does not authorize the approval"
      },
      "onTransfer(address,address,uint256)": {
        "params": {
          "_amount": "The amount of the transfer",
          "_from": "The origin of the transfer",
          "_to": "The destination of the transfer"
        },
        "return": "False if the controller does not authorize the transfer"
      },
      "owner()": {
        "details": "Returns the address of the current owner."
      },
      "proxyPayment(address)": {
        "params": {
          "_owner": "Does not do anything, but preserved because of MiniMe standard function."
        }
      },
      "renounceOwnership()": {
        "details": "Leaves the contract without owner. It will not be possible to call `onlyOwner` functions anymore. Can only be called by the current owner.     * NOTE: Renouncing ownership will leave the contract without an owner, thereby removing any functionality that is only available to the owner."
      },
      "transferOwnership(address)": {
        "details": "Transfers ownership of the contract to a new account (`newOwner`). Can only be called by the current owner."
      },
      "upgradeController(address)": {
        "params": {
          "_newControllerAddress": "The address that will have the token control logic"
        }
      }
    }
  },
  "userdoc": {
    "methods": {
      "claimTokens(address)": {
        "notice": "///////This method can be used by the owner to extract mistakenly  sent tokens to this contract."
      },
      "onApprove(address,address,uint256)": {
        "notice": "Notifies the controller about an approval, for this Campaign all  approvals are allowed by default and no extra notifications are needed"
      },
      "onBurn(address,uint256)": {
        "notice": "Notifies the controller about a burn attempt. Initially all burns are disabled. Upgraded Controllers in the future will allow token holders to claim the pledged ETH"
      },
      "onTransfer(address,address,uint256)": {
        "notice": "Notifies the controller about a transfer. Transfers can only happen to whitelisted addresses"
      },
      "proxyPayment(address)": {
        "notice": "//////////////`proxyPayment()` allows the caller to send ether to the Campaign but does not create tokens. This functions the same as the fallback function."
      },
      "upgradeController(address)": {
        "notice": "`onlyOwner` can upgrade the controller contract"
      }
    }
  }
}